:100000000C9458000C9480000C9480000C94800098
:100010000C9480000C9480000C9480000C94800060
:100020000C9480000C9480000C9480000C94800050
:100030000C9480000C9480000C9480000C94800040
:100040000C94CE0A0C9480000C943E0B0C94180B6C
:100050000C9480000C9480000C9480000C94800020
:100060000C94700B0C948000000000002500280008
:100070002B00040404040404040402020202020229
:10008000030303030303010204081020408001025C
:1000900004081020010204081020000000080002DB
:1000A00001000003040700000000000000008F0CA6
:1000B00011241FBECFEFD8E0DEBFCDBF12E0A0E01D
:1000C000B1E0ECE3F7E202C005900D92AC31B1076C
:1000D000D9F723E0ACE1B2E001C01D92A13BB20729
:1000E000E1F710E0C8E5D0E004C02197FE010E94CE
:1000F0007112C735D107C9F70E94D10C0C949C131B
:100100000C94000090E0FC01E656FF4F2491FC01A6
:10011000EA57FF4F3491FC01EE58FF4FE491EE2374
:10012000C9F0222339F0233001F1A8F4213019F16C
:10013000223029F1F0E0EE0FFF1FE859FF4FA591A3
:10014000B4918FB7F894EC91611126C030953E239D
:100150003C938FBF08952730A9F02830C9F0243090
:1001600049F7809180008F7D03C0809180008F7758
:1001700080938000DFCF84B58F7784BDDBCF84B5DB
:100180008F7DFBCF8091B0008F778093B000D2CF6E
:100190008091B0008F7DF9CF3E2BDACF8230910570
:1001A00038F0880F991F880F991F05970197F1F76D
:1001B00008953FB7F8948091910290919202A09196
:1001C0009302B091940226B5A89B05C02F3F19F069
:1001D0000196A11DB11D3FBFBA2FA92F982F8827C7
:1001E000BC01CD01620F711D811D911D42E0660FA2
:1001F000771F881F991F4A95D1F708958F929F9274
:10020000AF92BF92CF92DF92EF92FF924B015C01CF
:100210000E94D9006B017C010E94D9006C197D09F4
:100220008E099F09683E734081059105A8F321E07E
:10023000821A9108A108B10888EEC80E83E0D81E82
:10024000E11CF11C81149104A104B10429F7FF9071
:10025000EF90DF90CF90BF90AF909F908F900895D8
:1002600008950895AF92BF92CF92DF92EF92FF92DE
:100270000F931F93CF93DF936C017B018B01040FCE
:10028000151FEB015E01AE18BF08C017D10759F06A
:100290006991D601ED91FC910190F081E02DC601AC
:1002A0000995892B79F7C501DF91CF911F910F91A6
:1002B000FF90EF90DF90CF90BF90AF900895FC013A
:1002C000538D448D252F30E0842F90E0821B930BBB
:1002D000541710F0CF96089501970895FC01918D61
:1002E000828D981761F0A28DAE0FBF2FB11D5D9664
:1002F0008C91928D9F5F9F73928F90E008958FEF06
:100300009FEF0895FC01918D828D981731F0828DB9
:10031000E80FF11D858D90E008958FEF9FEF089510
:10032000FC01918D228D892F90E0805C9F4F821B74
:1003300091098F739927089585EE92E00E949001AC
:1003400021E0892B09F420E0822F089580E090E0DD
:10035000892B29F00E949C0181110C9400000895C2
:10036000FC01A48DA80FB92FB11DA35ABF4F2C912A
:10037000848D90E001968F739927848FA689B78921
:100380002C93A089B1898C91837080648C93938D18
:10039000848D981306C00288F389E02D80818F7DBB
:1003A00080830895EF92FF920F931F93CF93DF9373
:1003B000EC0181E0888F9B8D8C8D98131AC0E889A1
:1003C000F989808185FF15C09FB7F894EE89FF8970
:1003D0006083E889F98980818370806480839FBF0E
:1003E00081E090E0DF91CF911F910F91FF90EF900E
:1003F0000895F62E0B8D10E00F5F1F4F0F7311271E
:10040000E02E8C8D8E110CC00FB607FCFACFE88958
:10041000F989808185FFF5CFCE010E94B001F1CF2F
:10042000EB8DEC0FFD2FF11DE35AFF4FF0829FB7CC
:10043000F8940B8FEA89FB8980818062CFCFCF93BC
:10044000DF93EC01888D8823B9F0AA89BB89E889FC
:10045000F9898C9185FD03C0808186FD0DC00FB6A2
:1004600007FCF7CF8C9185FFF2CF808185FFEDCF20
:10047000CE010E94B001E9CFDF91CF910895209184
:100480005D02260F3327331F21323105ECF4209112
:10049000BB02FC0190E080E0243069F082E0089526
:1004A000A0915D022191AC01435C5D4FA40FB52F7B
:1004B000B11D2C930196861798F380915D02680F09
:1004C00060935D0280E0089581E008951092BB0280
:1004D00081E08093BA021092950261E082E10E946D
:1004E000820061E083E10E948200E9EBF0E080811C
:1004F0008E7F808380818D7F808388E48093B800A5
:1005000085E48093BC000895CF93DF9391E09093AE
:100510003C028823B9F0C091B800D091BA00809114
:10052000BC008A7B8093BC0060E082E10E94820074
:1005300060E083E10E9482000E946602D093BA00CC
:10054000C093B800DF91CF9108958F929F92AF92A0
:10055000BF92CF92DF92EF92FF920F931F93CF93B0
:10056000DF93D091E402D13208F0D7C0182FC091A8
:10057000E3020E94D9006B017C018091BB028111D2
:100580006BC082E08093BB021093BA028FEF80931E
:10059000B9021092B802D093B702A3ECB2E0E7E937
:1005A000F2E080E0D81391C01092960280919602FA
:1005B000CC0FC82BC093960280919502813009F030
:1005C00088C0109295020E94D9006B017C01809135
:1005D00096028093BB008091BD029091BE02A091D3
:1005E000BF02B091C002892B8A2B8B2BA1F00E94F5
:1005F000D9000091BD021091BE022091BF0230913E
:10060000C0026C197D098E099F0906171707280774
:10061000390708F442C08091BC0083FDD8CF85EC37
:100620008093BC000E94D9006B017C018091BB02C9
:10063000823009F450C08091B9028F3F09F46FC035
:100640008091B902803209F46CC08091B902803384
:1006500009F469C084E026C08091BD029091BE0279
:10066000A091BF02B091C002892B8A2B8B2B09F479
:1006700084CF0E94D9008090BD029090BE02A090CD
:10068000BF02B090C0026C197D098E099F098616C1
:100690009706A806B90608F070CF8091BC020E94A8
:1006A000840285E01092C2021092E4021092C1020C
:1006B000DF91CF911F910F91FF90EF90DF90CF903E
:1006C000BF90AF909F908F9008959D9191938F5F71
:1006D00069CF85EEA5CF8091BD029091BE02A09119
:1006E000BF02B091C002892B8A2B8B2B09F49ECFBD
:1006F0000E94D9000091BD021091BE022091BF025C
:100700003091C0026C197D098E099F0906171707E1
:100710002807390708F08ACFC0CF81E0C3CF80E037
:10072000C1CF82E0BFCF83E0BDCF0895E0918502C5
:1007300080918402E81730F4F0E0E45EFD4F8081A0
:1007400090E008958FEF9FEF08959091850280913A
:1007500084022FEF3FEF981748F4E92FF0E0E45EB2
:10076000FD4F208130E09F5F90938502C90108957D
:100770008091840290918502891B990B0895CF92F4
:10078000DF92EF92FF920F931F93CF93DF937C0141
:10079000CB018A012091C102222389F0EB016B0178
:1007A000C40ED51ECC15DD0569F06991D701ED9118
:1007B000FC910190F081E02DC7010995F3CF642FE2
:1007C0000E943F02C801DF91CF911F910F91FF90CE
:1007D000EF90DF90CF900895CF93DF931F92CDB726
:1007E000DEB769832091C1022223F9F02091E4024F
:1007F000203258F021E030E0FC013383228390E086
:1008000080E00F90DF91CF9108958091C202E82F90
:10081000F0E0ED53FD4F998190838F5F8093C2028A
:100820008093E40281E090E0ECCF61E0CE0101969C
:100830000E943F02F7CF90E080E00895FC0183859D
:100840008F3F19F061E00C9482000895FC018081D3
:100850009181892B39F0A281B3819C9111968C9161
:100860009CBD8DBD83858F3F19F060E00C948200A4
:100870000895AF92BF92CF92DF92EF92FF920F93C3
:100880001F93CF93DF93EC0188819981892B89F0A5
:100890006EBD0DB407FEFDCFBEB48B2DDF91CF91A1
:1008A0001F910F91FF90EF90DF90CF90BF90AF908E
:1008B00008958885998511E0892B09F010E8AA240C
:1008C000A394862F812309F0A12C062F2C813D8132
:1008D0004E815F8160E271EA87E090E00E944F12F2
:1008E000F22EB02EE12CC22ED12CFF2019F0C60121
:1008F0000E94CE008A85877F09F042C08D858F3F98
:1009000089F0902F912381E009F480E08A1551F05D
:10091000EF85F8898F89992369F19081892B8083EC
:10092000AA24A394E989FA898081998D892B8083EF
:10093000FF2019F0C6010E94CE008E858F3F39F04E
:10094000EB89FC898081988D892309F0E12AE98966
:10095000FA899081898D8095892380838E858F3F48
:1009600009F0BE2C88859985892BB9F5110F1111D5
:10097000BCCF93CF9081809589238083A12CD2CF47
:10098000E989FA898081998D892B8083FF2019F06C
:10099000C6010E94CE008D858F3F49F0EF85F88912
:1009A0008F89902F9123A9F09081892B8083E989E9
:1009B000FA899081898D8095892380838E858F3FE8
:1009C00069F2EB89FC898081988D892339F2E12ACB
:1009D000C5CF908180958923E9CF1695C8CF8F9296
:1009E0009F92AF92BF92CF92DF92EF92FF920F93BE
:1009F0001F93CF93DF937C014B016A01B22EA32E8C
:100A00000E942604E401C80CD91CCC15DD0569F44C
:100A1000CB2DDA2D0C0F1D1FC017D10759F06FEF2A
:100A2000C7010E9439048993F7CF6991C7010E94D9
:100A30003904EBCFC7010E941E0481E0DF91CF9102
:100A40001F910F91FF90EF90DF90CF90BF90AF90EC
:100A50009F908F9008958F929F92AF92BF92CF9266
:100A6000DF92EF92FF920F931F93CF93DF937C015E
:100A7000B62EA72E6A0149010E942604E401080D42
:100A8000191DC017D10761F4CB2DDA2DCC0EDD1E58
:100A9000CC15DD0551F06991C7010E943904F8CFEA
:100AA0006991C7010E943904ECCFC7010E941E045E
:100AB00081E0DF91CF911F910F91FF90EF90DF9038
:100AC000CF90BF90AF909F908F9008951F93CF933A
:100AD000DF93EA01122FDC0111968D919C91DC01CC
:100AE000ED91FC910280F381E02D0995C817D9079B
:100AF00029F4812F0E94A50291E0811190E0892FB5
:100B0000DF91CF911F910895CF93DF93EC018B81FB
:100B10008823A1F0888191E09093C1028093E30241
:100B20001092C2021092E40281E00E94A50291E0BC
:100B3000811190E0892FDF91CF9108951092850265
:100B4000109284021092C2021092E4020E94660285
:100B500080E391E0909381028093800281E391E0B1
:100B6000909383028093820281E08B83CE010E9466
:100B70008405982F8111CECFDDCFAF92BF92CF9257
:100B8000DF92EF92FF920F931F93CF93DF9300D0EA
:100B9000CDB7DEB7DC01211103C018962C91189750
:100BA000253008F043C01F964D935D936D937C9361
:100BB000529790E080E0E22EF12C8E159F05B4F460
:100BC0001A962C911A9721110AC0FD01E80FF91FFE
:100BD0004387452F562F672F77270196EECFF701D2
:100BE000E81BF90BEA0FFB1F4287F3CF6D018BE087
:100BF000C80ED11C16969C91169717968C91179734
:100C000099838A83AD90BC901197A114B10409F423
:100C100041C019960C9110E098012E0D3F1DD50191
:100C200014968D919C918217930710F480E016C062
:100C3000F50181819281208131E03093C1022093BE
:100C4000E3021092C2021092E4020115110599F418
:100C500021E0A701B601C5010E9466050F900F9023
:100C6000DF91CF911F910F91FF90EF90DF90CF9088
:100C7000BF90AF900895DC01ED91FC910280F3816B
:100C8000E02DA801BE016F5F7F4F09950817190776
:100C900069F6DECF1296ED91FC911397309731F201
:100CA00014962D913C91159719960C9110E02330D4
:100CB000310571F48E7F89839A830F5F1F4F9E01E8
:100CC0002F5F3F4FA701B601CF010E942B05C6CF72
:100CD0002115310519F49F779983F1CF2230310521
:100CE00011F49068F9CF2130310549F79F7790646E
:100CF000F3CFCF93DF93CDB7DEB763970FB6F894FA
:100D0000DEBF0FBECDBF2091910330919203188AB0
:100D1000198A1A8A1B8A3A8329831C821B8221E042
:100D20002A8790E098878F831B862987462F50E07B
:100D300070E060E020E0CE0101960E94BD05639660
:100D40000FB6F894DEBF0FBECDBFDF91CF910895EF
:100D5000FC0101900020E9F73197AF01481B590BC6
:100D6000BC0185EE92E00C9432018F929F92AF927B
:100D7000BF920F931F93CF93DF93CDB7DEB7A197A9
:100D80000FB6F894DEBF0FBECDBF19A2423008F4F3
:100D90004AE08E010F5D1F4F842E912CB12CA12CA7
:100DA000A50194010E944F12E62FB901CA01EA3051
:100DB000F4F4E05DD801EE938D01232B242B252B39
:100DC00079F790E080E0109719F0CD010E94A80615
:100DD000A1960FB6F894DEBF0FBECDBFDF91CF91C5
:100DE0001F910F91BF90AF909F908F900895E95CF5
:100DF000E1CFCF93DF930E94A806EC0180E391E05E
:100E00000E94A8068C0F9D1FDF91CF9108952F920D
:100E10003F924F925F926F927F928F929F92AF928A
:100E2000BF92CF92DF92EF92FF920F931F93CF93D7
:100E3000DF9300D000D0CDB7DEB7FC014B01042F0B
:100E40009681878199838A8320803180211431049F
:100E500009F439C1418550E0D10114968D919C91DE
:100E600084179507C8F4B12C8B2D0F900F900F901D
:100E70000F90DF91CF911F910F91FF90EF90DF9036
:100E8000CF90BF90AF909F908F907F906F905F902A
:100E90004F903F902F900895F101808191E09093C1
:100EA000C1028093E3021092C2021092E40220E099
:100EB000BE016F5F7F4FC1010E946605B82E882377
:100EC00091F2802F90E09C838B83D12CC12C01E088
:100ED000AB81BC81CA16DB0638F6F10184819581AD
:100EE0007D01EC18FD088E159F0508F47C01D101E9
:100EF000AC900E94D9002B013C018091BB02811172
:100F000072C01E2D113208F010E20093BB0221E0E6
:100F10008B819C818E199F09C816D90608F420E0A0
:100F20002093BA02BFEFB093B9021092B8028FEFCC
:100F3000810F8093B7020093960280919602AA0CCB
:100F4000A82AA092960280919502813009F092C061
:100F5000109295020E94D9002B013C0180919602CB
:100F60008093BB008091BD029091BE02A091BF0210
:100F7000B091C002892B8A2B8B2BA1F00E94D90043
:100F80002091BD023091BE024091BF025091C0023B
:100F900064197509860997092617370748075907FD
:100FA00008F442C08091BC0083FDD8CFE5ECE0930B
:100FB000BC000E94D9002B013C018091BB02813012
:100FC00009F45CC08091B802811710F41091B80246
:100FD000A7E9B2E0ECE1F2E080E0811751F19D91E8
:100FE00091938F5FFACF8091BD029091BE02A09144
:100FF000BF02B091C002892B8A2B8B2B09F47DCFC5
:101000000E94D9002091BD023091BE024091BF02E2
:101010005091C00264197509860997092617370788
:101020004807590708F069CF8091BC020E948402EA
:1010300010E010928502109384021E151F0409F01F
:1010400012CF34016C0C7D1C2301C2018619970953
:101050008E159F05A8F5D10111968D919C91DC010B
:10106000ED91FC910284F385E02D0995F2018193C5
:101070002F01EBCFF5EEF093BC009BCF8091BD022A
:101080009091BE02A091BF02B091C002892B8A2B21
:101090008B2B09F492CF0E94D9002091BD02309190
:1010A000BE024091BF025091C002641975098609C1
:1010B0009709261737074807590708F07ECFB4CF9E
:1010C000CE0CDF1C05CFA281B381109709F4CBCEE3
:1010D0002481358110E0418550E02330310571F4E1
:1010E000816089839A834F5F5F4F9401BE016F5F78
:1010F0007F4FCD010E94EF04B82EB6CE21153105E9
:1011000019F490689983F1CF2230310511F49F775B
:10111000F9CF2130310549F7906CF4CFCF93DF93AD
:10112000EC01BC01655F7F4F48850E94070788235B
:1011300001F1488550E030E020E060E070E0CB0154
:1011400024173507CCF4982F872F762F6627EA854A
:10115000E1110AC0FA01E21BF30BEC0FFD1FE2855F
:101160006E2B2F5F3F4FECCFFE01E20FF31FE385A5
:10117000F7CF6FEF7FEFCB01DF91CF910895EF9223
:10118000FF921F93CF93DF93CDB7DEB763970FB670
:10119000F894DEBF0FBECDBF11E083EAE82EF12C3C
:1011A0008091910390919203188A198A1A8A1B8A56
:1011B0009A8389831C821B821A87F886EF821B869A
:1011C0001987CE0101960E948E0866FD07C061E076
:1011D00070E080E090E00E94FE00E2CF63960FB6E0
:1011E000F894DEBF0FBECDBFDF91CF911F91FF906E
:1011F000EF9008958F929F92AF92BF92CF92DF921D
:10120000EF92FF920F931F93CF93DF93EC014A016C
:101210005B01888199810E948E082A8101E010E09B
:1012200002C0000F111F2A95E2F701501109012E8B
:10123000000C220B330BAB81680179010A2E04C02C
:10124000CC0CDD1CEE1CFF1C0A94D2F7C094D09489
:10125000E094F094C622D722E822F922E881F981AD
:10126000B901A801482159216A217B2104C0440FFA
:10127000551F661F771FAA95D2F74C295D296E2945
:101280007F292085CF01DF91CF911F910F91FF9092
:10129000EF90DF90CF90BF90AF909F908F900C9485
:1012A000BD05CF93DF93CDB7DEB767970FB6F89440
:1012B000DEBF0FBECDBF2091910330919203188AFB
:1012C000198A1A8A1B8A3A8329831C821B8291E01D
:1012D0009A8720E830E038872F831B8699879E0104
:1012E0002F5F3F4F3D8B2C8B9E8B9F8B482F50E069
:1012F00070E060E0CE0144960E94FA0867960FB64F
:10130000F894DEBF0FBECDBFDF91CF910895DF927D
:10131000EF92FF920F931F93CF93DF93CDB7DEB77A
:1013200067970FB6F894DEBF0FBECDBF80919103D3
:1013300090919203188A198A1A8A1B8A9A83898340
:101340001C821B8281E08A8720E830E038872F8367
:101350001B8689879E012F5F3F4F3D8B2C8B8E8B89
:1013600084E08F8B41E050E060E070E0CE01449675
:101370000E94FA08D82E10E000E0EE24E394F12C4D
:101380008C899D890E948E08AB01BC018E899701D2
:1013900002C0220F331F8A95E2F7C9010197092E77
:1013A000000CAA0BBB0B2F8904C076956795579547
:1013B00047952A95D2F784239523A623B723892B13
:1013C0008A2B8B2B69F0083E33E0130761F061E054
:1013D00070E080E090E00E94FE000F5F1F4FD0CFD2
:1013E000083E134009F4D12C8D2D67960FB6F89462
:1013F000DEBF0FBECDBFDF91CF911F910F91FF9048
:10140000EF90DF900895CF93DF93CDB7DEB7679766
:101410000FB6F894DEBF0FBECDBF809191039091BF
:101420009203188A198A1A8A1B8A9A8389831C82D2
:101430001B8281E08A872FEA30E038872F831B8662
:101440008987CE0101969D8B8C8B82E08E8B83E009
:101450008F8B42E050E060E070E0CE0144960E9445
:10146000FA0867960FB6F894DEBF0FBECDBFDF91C6
:10147000CF910895EF92FF921F93CF93DF93CDB753
:10148000DEB7AA970FB6F894DEBF0FBECDBF7C01C2
:10149000FC01838194811BA21CA21DA21EA29D8B14
:1014A0008C8B1F8A1E8A11E01D8F82E990E09B8F32
:1014B0008A8F1E8E1C8FCE0144960E948E086C7FF0
:1014C000772788279927643271058105910561F591
:1014D000F70183819481188A198A1A8A1B8A9A8350
:1014E00089831C821B821A8780E890E098878F830B
:1014F0001B861987CE01019698A78FA319A71AA654
:1015000041E050E060E070E086960E94FA0881E0D9
:10151000AA960FB6F894DEBF0FBECDBFDF91CF9174
:101520001F91FF90EF90089580E0F2CF85ED8093BA
:10153000BC008091BD029091BE02A091BF02B0910B
:10154000C0020796A11DB11D23E0B695A7959795FA
:1015500087952A95D1F72091BC0024FD03C01092F5
:10156000BB0208954091BD025091BE026091BF023E
:101570007091C002452B462B472B69F30097A105BC
:10158000B10541F02AE22A95F1F700C00197A109BF
:10159000B109E1CF8091BC020C9484021F920F929A
:1015A0000FB60F9211242F933F938F939F93AF9376
:1015B000BF9380918D0290918E02A0918F02B09185
:1015C000900230918C0223E0230F2D3758F50196BD
:1015D000A11DB11D20938C0280938D0290938E02E9
:1015E000A0938F02B0939002809191029091920209
:1015F000A0919302B09194020196A11DB11D809318
:10160000910290939202A0939302B0939402BF919F
:10161000AF919F918F913F912F910F900FBE0F909F
:101620001F90189526E8230F0296A11DB11DD2CF59
:101630001F920F920FB60F9211242F933F934F9347
:101640005F936F937F938F939F93AF93BF93EF932A
:10165000FF9385EE92E00E94B001FF91EF91BF9160
:10166000AF919F918F917F916F915F914F913F913A
:101670002F910F900FBE0F901F9018951F920F92F1
:101680000FB60F9211242F938F939F93EF93FF9395
:10169000E091F502F091F6028081E091FB02F09179
:1016A000FC0282FD1BC090818091FE028F5F8F73D0
:1016B0002091FF02821741F0E091FE02F0E0EB5131
:1016C000FD4F958F8093FE02FF91EF919F918F9137
:1016D0002F910F900FBE0F901F9018958081F4CF1F
:1016E0001F920F920FB60F9211242F933F934F9397
:1016F0005F936F937F938F939F93AF93BF93EF937A
:10170000FF938091B900887F803609F44AC0F0F5D4
:10171000883209F4A7C018F5803109F49BC0B8F4E9
:10172000882309F4F9C0883009F494C0FF91EF913F
:10173000BF91AF919F918F917F916F915F914F91E9
:101740003F912F910F900FBE0F901F9018958831E9
:1017500009F488C0803251F78093B90214C08034F4
:1017600009F49DC040F48033B9F38833F9F68093CF
:10177000B90285ECB0C0803509F485C0883509F41C
:1017800096C0883499F60E94960AD0CF883909F419
:101790008CC038F5883729F050F4883611F080373E
:1017A00029F683E08093BB0210927F0257C08838ED
:1017B00009F47BC0803919F0803809F0B7CF8091E7
:1017C0007F02803208F071C0E0917F0281E08E0FCD
:1017D00080937F028091BB00F0E0E15AFD4F80834F
:1017E0003DC0803B39F0E0F4803A09F479C0883A92
:1017F00009F09CCF84E08093BB0210925E021092AD
:101800005D02E0918002F0918102099580915D0274
:1018100081110FC081E080935D0210923D0209C0EA
:10182000803C09F4A6CF883C09F4A3CF883B09F09B
:101830007DCFE0915E0281E08E0F80935E02F0E04A
:10184000E35CFD4F80818093BB0090915E028091AC
:101850005D0229C0809196028093BB0085EC809345
:10186000BC0064CF9091B8028091B702981758F5E8
:10187000E091B80281E08E0F8093B802F0E0E95663
:10188000FD4F8081E9CFE091B80281E08E0F809317
:10189000B8028091BB00F0E0E956FD4F8083909143
:1018A000B8028091B7029817C8F285E8D8CFE091C6
:1018B000B80281E08E0F8093B8028091BB00F0E007
:1018C000E956FD4F80838091BA0281115CCF81E09F
:1018D0008093950284EA8093BC001092BB0226CFCD
:1018E00085EC8093BC001092BB0280917F02803215
:1018F00030F4E0917F02F0E0E15AFD4F10826091F8
:101900007F0270E0E0918202F09183028FE592E025
:10191000099510927F020ACF1092B90234CFE5EEFA
:10192000F2E01382128288EE93E0A0E0B0E08483BC
:101930009583A683B7832AE031E03183208325ECA9
:1019400030E03587248724EC30E03787268720EC89
:1019500030E0318B208B21EC30E0338B228B22EC7A
:1019600030E0358B248B26EC30E0378B268B118EC4
:10197000128E138E148EE2E8F3E0138212828483B7
:101980009583A683B7838CE191E091838083EEE811
:10199000F3E08EE291E091838083128214821382BD
:1019A0000895CF93DF93CDB7DEB763970FB6F89462
:1019B000DEBF0FBECDBF789484B5826084BD84B590
:1019C000816084BD85B5826085BD85B5816085BD3A
:1019D00080916E00816080936E00109281008091F2
:1019E000810082608093810080918100816080937A
:1019F0008100809180008160809380008091B1009F
:101A000084608093B1008091B00081608093B000C9
:101A100080917A00846080937A0080917A0082605D
:101A200080937A0080917A00816080937A0080911F
:101A30007A00806880937A001092C10010928B0225
:101A400010928A02E091F502F091F60282E0808322
:101A5000E091F102F091F2021082E091F302F09134
:101A6000F40280E180831092FD02E091F902F0918E
:101A7000FA0286E08083E091F702F091F80280811B
:101A800080618083E091F702F091F80280818860A4
:101A90008083E091F702F091F80280818068808372
:101AA000E091F702F091F80280818F7D8083809130
:101AB000910390919203009711F00E94131386E016
:101AC00090E00E9477128C0189E3F801808382E81C
:101AD00093E092838183138280E290E095838483F4
:101AE0001093920300939103109285021092840246
:101AF0001092C2021092E4020E94660280E391E01A
:101B0000909381028093800281E391E0909383021D
:101B100080938202FF24F394F801F382C8010E94AB
:101B2000840581110BC083E391E00E94F9066AE00D
:101B300070E080E090E00E94FE00F9CF40E050E0CD
:101B4000BA018EE893E00E943A0A882361F38091FB
:101B5000910390919203188A198A1A8A1B8A9A8390
:101B600089831C821B82FA8681E890E098878F83A4
:101B70001B86F98620E044E650E060E070E0CE018C
:101B800001960E94BD058091910390919203188A5D
:101B9000198A1A8A1B8A9A8389831C821B82FA8675
:101BA0008AEC90E098878F831B8682E0898720E00B
:101BB00047EE53E060E070E0CE0101960E94BD0563
:101BC0008091910390919203188A198A1A8A1B8A2C
:101BD0009A8389831C821B82FA868AEA90E098871E
:101BE0008F831B86F98620E049E050E060E070E0DA
:101BF000CE0101960E94BD0581E090E090938B029A
:101C000080938A028FE691E00E94F90692E0292EE5
:101C1000312C03E010E080E00E9451090E94030A89
:101C200060E380E00E94790661E081E00E9479062D
:101C300060E082E00E94790660E083E00E9479061D
:101C400060E084E00E94790662E485E00E94790603
:101C500060E086E00E94790660E087E00E947906F5
:101C600060E588E00E94790660E089E00E947906DC
:101C700060E08AE00E94790660E08BE00E947906CD
:101C800060E28CE00E94790664E08DE00E947906B3
:101C900060E08EE00E94790660E38FE00E947906A2
:101CA00061E080E10E94790660E581E10E947906A9
:101CB00060E082E10E94790666E083E10E94790695
:101CC0000E94870981E00E9451090E94BF0880910B
:101CD000910390919203188A198A1A8A1B8A9A830F
:101CE00089831C821B8281E08A8785E990E098873E
:101CF0008F831B8682E089874CE063E973E0CE0125
:101D000001960E940707F82E80E00E9451090E9468
:101D1000030A60E080E00E94790660E081E00E94B2
:101D2000790660E082E00E94790660E483E00E9428
:101D3000790662E084E00E94790660E085E00E9416
:101D4000790660E186E00E94790663E087E00E9400
:101D5000790660E588E00E94790660E189E00E94EA
:101D6000790663E08AE00E94790660E08BE00E94D9
:101D7000790660E08CE00E94790660E08DE00E94C8
:101D8000790664E28EE00E94790660E08FE00E94AE
:101D9000790660E080E10E94790660E581E10E94B9
:101DA000790660E082E10E94790666E083E10E94A4
:101DB00079060E94870981E00E9451090E94BF08AC
:101DC000FF2049F04CE06FE973E0CE0101960E94DC
:101DD0000707811105C089E891E00E94F9060EC04D
:101DE00080918A0290918B0281309105E1F098F008
:101DF00082309105C9F1039709F40EC180E090E0AB
:101E0000892B09F408CF0E949C01882309F403CF91
:101E10000E94000000CF85EA91E00E94F90681E06F
:101E200090E00E949C138091970390919803883EC4
:101E3000934020F330928B0220928A022FB7F894BD
:101E400080918D0290918E02A0918F02B0919002AC
:101E50002FBF8093860290938702A0938802B0934D
:101E6000890282ED91E0B9CF809197039091980318
:101E70008536910518F610938B0200938A0288EE3E
:101E800091E00E94F9068FB7F894C0908D02D0902F
:101E90008E02E0908F02F09090028FBF80918602B8
:101EA00090918702A0918802B0918902C81AD90A3C
:101EB000EA0AFB0A8EEF91E00E94A806C701B6016C
:101EC0000E94281120E030E04AE754E40E94851087
:101ED0006B017C014B015C01AC019B010E944A1229
:101EE000882359F085E092E00E94A80681E192E003
:101EF0000E94A80682E391E070CF26013701E894A2
:101F000077F82FEF3FEF4FE75FE7C301B2010E9481
:101F10004A1281110DC02FEF3FEF4FE75FE7C3017A
:101F2000B2010E94801018161CF489E092E0DCCF08
:101F30002FEF3FEF4FE75FE4C701B6010E94D811D2
:101F400018161CF48DE092E0CFCF2FEF3FEF4FE754
:101F50005FECC701B6010E94801087FDF3CF20E03F
:101F600030E0A901C701B6010E94801087FF0BC0B5
:101F70006DE285EE92E00E94D20146015701B7FA68
:101F8000B094B7F8B0942EE632E143E05AE3C501CD
:101F9000B4010E9414106B017C010E94F7104B01E8
:101FA0005C010E9426119B01AC01C701B6010E9491
:101FB00013106B017C014AE0C501B4010E94B50613
:101FC0006EE285EE92E00E94D20184E0B82EBA94CF
:101FD000BB2009F48BCF20E030E040E251E4C701A0
:101FE000B6010E94DD112B013C010E94F7106B012C
:101FF000F12CE12C4AE0C701B6010E94B506C701E9
:10200000B6010E9426119B01AC01C301B2010E94DE
:1020100013106B017C01DBCF88EE91E00E94F90682
:1020200090E080E0FECE5058BB27AA270E942B10DC
:102030000C949E110E94901138F00E94971120F08C
:1020400039F49F3F19F426F40C948D110EF4E095A9
:10205000E7FB0C948711E92F0E94AF1158F3BA17D0
:10206000620773078407950720F079F4A6F50C94AE
:10207000D1110EF4E0950B2EBA2FA02D0B01B90152
:1020800090010C01CA01A0011124FF27591B99F0EE
:10209000593F50F4503E68F11A16F040A22F232FFA
:1020A000342F4427585FF3CF469537952795A7954A
:1020B000F0405395C9F77EF41F16BA0B620B730BF1
:1020C000840BBAF09150A1F0FF0FBB1F661F771F62
:1020D000881FC2F70EC0BA0F621F731F841F48F417
:1020E000879577956795B795F7959E3F08F0B0CFA0
:1020F0009395880F08F09927EE0F97958795089587
:102100000E94631108F481E008950E9499100C94D4
:102110009E110E94971158F00E94901140F029F4EE
:102120005F3F29F00C94871151110C94D2110C943B
:102130008D110E94AF1168F39923B1F3552391F3E8
:10214000951B550BBB27AA2762177307840738F026
:102150009F5F5F4F220F331F441FAA1FA9F335D083
:102160000E2E3AF0E0E832D091505040E695001C37
:10217000CAF72BD0FE2F29D0660F771F881FBB1FF1
:10218000261737074807AB07B0E809F0BB0B802DCF
:10219000BF01FF2793585F4F3AF09E3F510578F0FB
:1021A0000C9487110C94D2115F3FE4F3983ED4F362
:1021B000869577956795B795F7959F5FC9F7880FCF
:1021C000911D9695879597F90895E1E0660F771F21
:1021D000881FBB1F621773078407BA0720F0621BB2
:1021E000730B840BBA0BEE1F88F7E09508950E94DD
:1021F000B71188F09F5798F0B92F9927B751B0F0D1
:10220000E1F0660F771F881F991F1AF0BA95C9F77A
:1022100014C0B13091F00E94D111B1E008950C9436
:10222000D111672F782F8827B85F39F0B93FCCF3E9
:10223000869577956795B395D9F73EF490958095F7
:10224000709561957F4F8F4F9F4F0895E89409C017
:1022500097FB3EF490958095709561957F4F8F4FD9
:102260009F4F9923A9F0F92F96E9BB279395F695EF
:10227000879577956795B795F111F8CFFAF4BB0F6D
:1022800011F460FF1BC06F5F7F4F8F4F9F4F16C0D1
:10229000882311F096E911C0772321F09EE8872F5B
:1022A000762F05C0662371F096E8862F70E060E017
:1022B0002AF09A95660F771F881FDAF7880F969590
:1022C000879597F90895990F0008550FAA0BE0E834
:1022D000FEEF16161706E807F907C0F012161306E8
:1022E000E407F50798F0621B730B840B950B39F428
:1022F0000A2661F0232B242B252B21F408950A268E
:1023000009F4A140A6958FEF811D811D089597F9CD
:102310009F6780E870E060E008959FEF80EC08958B
:1023200000240A94161617061806090608950024B4
:102330000A9412161306140605060895092E03942E
:10234000000C11F4882352F0BB0F40F4BF2B11F4A2
:1023500060FF04C06F5F7F4F8F4F9F4F089557FD01
:102360009058440F551F59F05F3F71F04795880F03
:1023700097FB991F61F09F3F79F08795089512169A
:1023800013061406551FF2CF4695F1DF08C0161646
:1023900017061806991FF1CF8695710561050894F7
:1023A0000895E894BB2766277727CB0197F908950E
:1023B0000E94631108F48FEF08950E94F0110C94AD
:1023C0009E110E94901138F00E94971120F09523E1
:1023D00011F00C9487110C948D1111240C94D211CE
:1023E0000E94AF1170F3959FC1F3950F50E0551FF8
:1023F000629FF001729FBB27F00DB11D639FAA275A
:10240000F00DB11DAA1F649F6627B00DA11D661FA8
:10241000829F2227B00DA11D621F739FB00DA11DC9
:10242000621F839FA00D611D221F749F3327A00D83
:10243000611D231F849F600D211D822F762F6A2F1F
:1024400011249F5750409AF0F1F088234AF0EE0F84
:10245000FF1FBB1F661F771F881F91505040A9F7B1
:102460009E3F510580F00C9487110C94D2115F3F70
:10247000E4F3983ED4F3869577956795B795F795ED
:10248000E7959F5FC1F7FE2B880F911D9695879565
:1024900097F908950E946311880B990B0895A1E2A2
:1024A0001A2EAA1BBB1BFD010DC0AA1FBB1FEE1FCE
:1024B000FF1FA217B307E407F50720F0A21BB30B19
:1024C000E40BF50B661F771F881F991F1A9469F795
:1024D00060957095809590959B01AC01BD01CF01F1
:1024E0000895EE0FFF1F0590F491E02D09940F93CE
:1024F0001F93CF93DF938230910510F482E090E038
:10250000E091AF03F091B00330E020E0B0E0A0E054
:10251000309799F42115310509F44AC0281B390B6D
:1025200024303105D8F58A819B816115710589F1C7
:10253000FB0193838283FE0111C04081518102819E
:10254000138148175907E0F04817590799F4109775
:1025500061F012960C93129713961C933296CF014A
:10256000DF91CF911F910F9108950093AF031093C6
:10257000B003F4CF2115310551F04217530738F05D
:10258000A901DB019A01BD01DF01F801C1CFEF0113
:10259000F9CF9093B0038093AF03CDCFFE01E20F4C
:1025A000F31F819391932250310939832883D7CF28
:1025B0002091AD033091AE03232B41F42091020111
:1025C000309103013093AE032093AD0320910001BD
:1025D000309101012115310541F42DB73EB74091ED
:1025E000040150910501241B350BE091AD03F091DE
:1025F000AE03E217F307A0F42E1B3F0B2817390791
:1026000078F0AC014E5F5F4F2417350748F04E0F4E
:102610005F1F5093AE034093AD03819391939FCF7F
:10262000F0E0E0E09CCFCF93DF930097E9F0FC016E
:10263000329713821282A091AF03B091B003ED01E3
:1026400030E020E01097A1F420813181820F931FA8
:102650002091AD033091AE032817390709F061C00E
:10266000F093AE03E093AD03DF91CF910895EA01BB
:10267000CE17DF07E8F54A815B819E0141155105C0
:10268000B1F7E901FB83EA8349915991C40FD51F42
:10269000EC17FD0761F4808191810296840F951FEC
:1026A000E90199838883828193819B838A83F0E007
:1026B000E0E012968D919C9113970097B9F52D91BA
:1026C0003C911197CD010296820F931F2091AD038B
:1026D0003091AE032817390739F6309751F510922B
:1026E000B0031092AF03B093AE03A093AD03BCCF81
:1026F000D383C28340815181840F951FC817D907A6
:1027000061F44E5F5F4F88819981480F591F518353
:1027100040838A819B81938382832115310509F04F
:10272000B0CFF093B003E093AF039ECFFD01DC0187
:0C273000C0CF13821282D7CFF894FFCFE5
:10273C000000B103800000000000D20132015F01F3
:10274C001F0290016E01820100000000EC03BF0328
:10275C001B049503B803A5039603000000003A0A76
:10276C000D0A00436F756C64206E6F742066696E81
:10277C0064207370656374726F6D65746572207319
:10278C00656E736F722E20436865636B20796F756D
:10279C007220636F6E6E656374696F6E732E005773
:1027AC00616974696E6720666F7220616374697603
:1027BC006174696F6E2E2E2E004572726F722072CC
:1027CC00656164696E6720616C6C206368616E6E14
:1027DC00656C73210053797374656D20697320697E
:1027EC006E20616E206572726F72207374617465F5
:1027FC002E20506C65617365207265737461727400
:10280C002E005374617274696E67206D6561737507
:10281C0072656D656E742E004D6561737572656DB4
:10282C00656E7420636F6D706C6574652E005469F1
:10283C006D653A20006E616E00696E66006F76669B
:0C284C0000207365636F6E64732E000043
:00000001FF
